{
  "contractName": "CaseContract",
  "abi": [
    {
      "inputs": [
        {
          "internalType": "address payable",
          "name": "_manager",
          "type": "address"
        },
        {
          "internalType": "string",
          "name": "_status",
          "type": "string"
        }
      ],
      "payable": false,
      "stateMutability": "nonpayable",
      "type": "constructor"
    },
    {
      "constant": true,
      "inputs": [
        {
          "internalType": "uint256",
          "name": "",
          "type": "uint256"
        }
      ],
      "name": "feedbacks",
      "outputs": [
        {
          "internalType": "uint256",
          "name": "id",
          "type": "uint256"
        },
        {
          "internalType": "uint256",
          "name": "date",
          "type": "uint256"
        },
        {
          "internalType": "uint256",
          "name": "createdAt",
          "type": "uint256"
        },
        {
          "internalType": "bytes32",
          "name": "commentHashed",
          "type": "bytes32"
        },
        {
          "internalType": "bytes32",
          "name": "feedbackAddressHashed",
          "type": "bytes32"
        },
        {
          "internalType": "bytes32",
          "name": "latitudeHashed",
          "type": "bytes32"
        },
        {
          "internalType": "bytes32",
          "name": "longitudeHashed",
          "type": "bytes32"
        },
        {
          "internalType": "bytes32",
          "name": "currentLatitudeHashed",
          "type": "bytes32"
        },
        {
          "internalType": "bytes32",
          "name": "currentLongitudeHashed",
          "type": "bytes32"
        },
        {
          "internalType": "bytes32",
          "name": "sourceHashed",
          "type": "bytes32"
        },
        {
          "internalType": "bytes32",
          "name": "feedbackImageHashed",
          "type": "bytes32"
        }
      ],
      "payable": false,
      "stateMutability": "view",
      "type": "function"
    },
    {
      "constant": true,
      "inputs": [],
      "name": "manager",
      "outputs": [
        {
          "internalType": "address",
          "name": "",
          "type": "address"
        }
      ],
      "payable": false,
      "stateMutability": "view",
      "type": "function"
    },
    {
      "constant": true,
      "inputs": [],
      "name": "status",
      "outputs": [
        {
          "internalType": "string",
          "name": "",
          "type": "string"
        }
      ],
      "payable": false,
      "stateMutability": "view",
      "type": "function"
    },
    {
      "constant": false,
      "inputs": [
        {
          "internalType": "uint256",
          "name": "_id",
          "type": "uint256"
        },
        {
          "internalType": "bytes32",
          "name": "_comment",
          "type": "bytes32"
        },
        {
          "internalType": "bytes32",
          "name": "_feedbackAddress",
          "type": "bytes32"
        },
        {
          "internalType": "bytes32",
          "name": "_latitude",
          "type": "bytes32"
        },
        {
          "internalType": "bytes32",
          "name": "_longitude",
          "type": "bytes32"
        },
        {
          "internalType": "bytes32",
          "name": "_currentLatitude",
          "type": "bytes32"
        },
        {
          "internalType": "bytes32",
          "name": "_currentLongitude",
          "type": "bytes32"
        },
        {
          "internalType": "bytes32",
          "name": "_source",
          "type": "bytes32"
        },
        {
          "internalType": "uint256",
          "name": "_date",
          "type": "uint256"
        },
        {
          "internalType": "uint256",
          "name": "_createdAt",
          "type": "uint256"
        },
        {
          "internalType": "bytes32",
          "name": "_feedbackImage",
          "type": "bytes32"
        }
      ],
      "name": "createFeedback",
      "outputs": [],
      "payable": false,
      "stateMutability": "nonpayable",
      "type": "function"
    },
    {
      "constant": false,
      "inputs": [
        {
          "internalType": "string",
          "name": "_status",
          "type": "string"
        }
      ],
      "name": "changeStatus",
      "outputs": [],
      "payable": false,
      "stateMutability": "nonpayable",
      "type": "function"
    }
  ],
  "bytecode": "0x608060405234801561001057600080fd5b5060405161097e38038061097e8339818101604052604081101561003357600080fd5b81019080805190602001909291908051604051939291908464010000000082111561005d57600080fd5b8382019150602082018581111561007357600080fd5b825186600182028301116401000000008211171561009057600080fd5b8083526020830192505050908051906020019080838360005b838110156100c45780820151818401526020810190506100a9565b50505050905090810190601f1680156100f15780820380516001836020036101000a031916815260200191505b50604052505050816000806101000a81548173ffffffffffffffffffffffffffffffffffffffff021916908373ffffffffffffffffffffffffffffffffffffffff160217905550806001908051906020019061014e929190610156565b5050506101fb565b828054600181600116156101000203166002900490600052602060002090601f016020900481019282601f1061019757805160ff19168380011785556101c5565b828001600101855582156101c5579182015b828111156101c45782518255916020019190600101906101a9565b5b5090506101d291906101d6565b5090565b6101f891905b808211156101f45760008160009055506001016101dc565b5090565b90565b6107748061020a6000396000f3fe608060405234801561001057600080fd5b50600436106100575760003560e01c8063200d2ed21461005c5780632bb8b0dc146100df578063481c6a751461016757806386a5ff97146101b1578063f7bd21651461026c575b600080fd5b6100646102ff565b6040518080602001828103825283818151815260200191508051906020019080838360005b838110156100a4578082015181840152602081019050610089565b50505050905090810190601f1680156100d15780820380516001836020036101000a031916815260200191505b509250505060405180910390f35b61010b600480360360208110156100f557600080fd5b810190808035906020019092919050505061039d565b604051808c81526020018b81526020018a81526020018981526020018881526020018781526020018681526020018581526020018481526020018381526020018281526020019b50505050505050505050505060405180910390f35b61016f6103f7565b604051808273ffffffffffffffffffffffffffffffffffffffff1673ffffffffffffffffffffffffffffffffffffffff16815260200191505060405180910390f35b61026a600480360360208110156101c757600080fd5b81019080803590602001906401000000008111156101e457600080fd5b8201836020820111156101f657600080fd5b8035906020019184600183028401116401000000008311171561021857600080fd5b91908080601f016020809104026020016040519081016040528093929190818152602001838380828437600081840152601f19601f82011690508083019250505050505050919291929050505061041c565b005b6102fd600480360361016081101561028357600080fd5b8101908080359060200190929190803590602001909291908035906020019092919080359060200190929190803590602001909291908035906020019092919080359060200190929190803590602001909291908035906020019092919080359060200190929190803590602001909291905050506104f8565b005b60018054600181600116156101000203166002900480601f0160208091040260200160405190810160405280929190818152602001828054600181600116156101000203166002900480156103955780601f1061036a57610100808354040283529160200191610395565b820191906000526020600020905b81548152906001019060200180831161037857829003601f168201915b505050505081565b600260205280600052604060002060009150905080600001549080600101549080600201549080600301549080600401549080600501549080600601549080600701549080600801549080600901549080600a015490508b565b6000809054906101000a900473ffffffffffffffffffffffffffffffffffffffff1681565b6000809054906101000a900473ffffffffffffffffffffffffffffffffffffffff1673ffffffffffffffffffffffffffffffffffffffff163373ffffffffffffffffffffffffffffffffffffffff16146104de576040517f08c379a00000000000000000000000000000000000000000000000000000000081526004018080602001828103825260098152602001807f666f7262696464656e000000000000000000000000000000000000000000000081525060200191505060405180910390fd5b80600190805190602001906104f492919061069a565b5050565b6000809054906101000a900473ffffffffffffffffffffffffffffffffffffffff1673ffffffffffffffffffffffffffffffffffffffff163373ffffffffffffffffffffffffffffffffffffffff16146105ba576040517f08c379a00000000000000000000000000000000000000000000000000000000081526004018080602001828103825260098152602001807f666f7262696464656e000000000000000000000000000000000000000000000081525060200191505060405180910390fd5b6040518061016001604052808c81526020018481526020018381526020018b81526020018a815260200189815260200188815260200187815260200186815260200185815260200182815250600260008d8152602001908152602001600020600082015181600001556020820151816001015560408201518160020155606082015181600301556080820151816004015560a0820151816005015560c0820151816006015560e082015181600701556101008201518160080155610120820151816009015561014082015181600a01559050505050505050505050505050565b828054600181600116156101000203166002900490600052602060002090601f016020900481019282601f106106db57805160ff1916838001178555610709565b82800160010185558215610709579182015b828111156107085782518255916020019190600101906106ed565b5b509050610716919061071a565b5090565b61073c91905b80821115610738576000816000905550600101610720565b5090565b9056fea265627a7a72315820c8f1d50f6ca27ba2e9e45083fc7d3b6ffe7d3f1985eed119ed11b5c58cb4d97a64736f6c634300050c0032",
  "source": "pragma solidity ^0.5.0;\n\ncontract CaseContract {\n\n    address public manager;\n    string public status;\n\n    struct Feedback{\n        uint id;\n        uint date;\n        uint createdAt;\n        bytes32 commentHashed;\n        bytes32 feedbackAddressHashed;\n        bytes32 latitudeHashed;\n        bytes32 longitudeHashed;\n        bytes32 currentLatitudeHashed;\n        bytes32 currentLongitudeHashed;\n        bytes32 sourceHashed;\n        bytes32 feedbackImageHashed;\n    }\n\n    mapping(uint => Feedback) public feedbacks;\n\n    modifier managerOnly {\n        require(msg.sender == manager, \"forbidden\");\n        _;\n    }\n\n    constructor(address payable _manager, string memory _status) public{\n        manager = _manager;\n        status = _status;\n    }\n\n    function createFeedback(uint _id, bytes32 _comment, bytes32 _feedbackAddress, bytes32 _latitude,\n        bytes32 _longitude, bytes32 _currentLatitude, bytes32 _currentLongitude, bytes32 _source,\n        uint _date, uint _createdAt, bytes32 _feedbackImage) public managerOnly {\n        feedbacks[_id] = Feedback(\n            _id,\n            _date,\n            _createdAt,\n            _comment,\n            _feedbackAddress,\n            _latitude,\n            _longitude,\n            _currentLatitude,\n            _currentLongitude,\n            _source,\n            _feedbackImage\n        );\n    }\n\n    function changeStatus(string memory _status) public managerOnly {\n        status = _status;\n    }\n}",
  "sourcePath": "/home/evangelos/Documents/ChildRescue/childrescue-blockchain/contracts/CaseContract.sol",
  "compiler": {
    "name": "solc",
    "version": "0.5.12+commit.7709ece9.Emscripten.clang"
  },
  "schemaVersion": "3.0.19",
  "updatedAt": "2019-12-20T08:15:55.529Z",
  "devdoc": {
    "methods": {}
  },
  "userdoc": {
    "methods": {}
  }
}