{
  "contractName": "CaseFactory",
  "abi": [
    {
      "inputs": [],
      "payable": false,
      "stateMutability": "nonpayable",
      "type": "constructor"
    },
    {
      "anonymous": false,
      "inputs": [
        {
          "indexed": false,
          "internalType": "address",
          "name": "newCaseContract",
          "type": "address"
        }
      ],
      "name": "CaseContractCreated",
      "type": "event"
    },
    {
      "constant": true,
      "inputs": [
        {
          "internalType": "address",
          "name": "",
          "type": "address"
        }
      ],
      "name": "cases",
      "outputs": [
        {
          "internalType": "contract CaseContract",
          "name": "",
          "type": "address"
        }
      ],
      "payable": false,
      "stateMutability": "view",
      "type": "function"
    },
    {
      "constant": true,
      "inputs": [],
      "name": "manager",
      "outputs": [
        {
          "internalType": "address payable",
          "name": "",
          "type": "address"
        }
      ],
      "payable": false,
      "stateMutability": "view",
      "type": "function"
    },
    {
      "constant": false,
      "inputs": [
        {
          "internalType": "string",
          "name": "_status",
          "type": "string"
        }
      ],
      "name": "createCase",
      "outputs": [],
      "payable": false,
      "stateMutability": "nonpayable",
      "type": "function"
    }
  ],
  "bytecode": "0x608060405234801561001057600080fd5b50336000806101000a81548173ffffffffffffffffffffffffffffffffffffffff021916908373ffffffffffffffffffffffffffffffffffffffff160217905550610e80806100606000396000f3fe608060405234801561001057600080fd5b50600436106100415760003560e01c80632dfe422614610046578063481c6a75146100ca578063d0d10af114610114575b600080fd5b6100886004803603602081101561005c57600080fd5b81019080803573ffffffffffffffffffffffffffffffffffffffff1690602001909291905050506101cf565b604051808273ffffffffffffffffffffffffffffffffffffffff1673ffffffffffffffffffffffffffffffffffffffff16815260200191505060405180910390f35b6100d2610202565b604051808273ffffffffffffffffffffffffffffffffffffffff1673ffffffffffffffffffffffffffffffffffffffff16815260200191505060405180910390f35b6101cd6004803603602081101561012a57600080fd5b810190808035906020019064010000000081111561014757600080fd5b82018360208201111561015957600080fd5b8035906020019184600183028401116401000000008311171561017b57600080fd5b91908080601f016020809104026020016040519081016040528093929190818152602001838380828437600081840152601f19601f820116905080830192505050505050509192919290505050610227565b005b60016020528060005260406000206000915054906101000a900473ffffffffffffffffffffffffffffffffffffffff1681565b6000809054906101000a900473ffffffffffffffffffffffffffffffffffffffff1681565b6000809054906101000a900473ffffffffffffffffffffffffffffffffffffffff1673ffffffffffffffffffffffffffffffffffffffff163373ffffffffffffffffffffffffffffffffffffffff16146102e9576040517f08c379a00000000000000000000000000000000000000000000000000000000081526004018080602001828103825260098152602001807f666f7262696464656e000000000000000000000000000000000000000000000081525060200191505060405180910390fd5b60008060009054906101000a900473ffffffffffffffffffffffffffffffffffffffff168260405161031a906104c0565b808373ffffffffffffffffffffffffffffffffffffffff1673ffffffffffffffffffffffffffffffffffffffff16815260200180602001828103825283818151815260200191508051906020019080838360005b8381101561038957808201518184015260208101905061036e565b50505050905090810190601f1680156103b65780820380516001836020036101000a031916815260200191505b509350505050604051809103906000f0801580156103d8573d6000803e3d6000fd5b50905080600160008373ffffffffffffffffffffffffffffffffffffffff1673ffffffffffffffffffffffffffffffffffffffff16815260200190815260200160002060006101000a81548173ffffffffffffffffffffffffffffffffffffffff021916908373ffffffffffffffffffffffffffffffffffffffff1602179055507f8e64db5ab59f87d48bef0087e453948296862570b328f40188324081eabf8f5781604051808273ffffffffffffffffffffffffffffffffffffffff1673ffffffffffffffffffffffffffffffffffffffff16815260200191505060405180910390a15050565b61097e806104ce8339019056fe608060405234801561001057600080fd5b5060405161097e38038061097e8339818101604052604081101561003357600080fd5b81019080805190602001909291908051604051939291908464010000000082111561005d57600080fd5b8382019150602082018581111561007357600080fd5b825186600182028301116401000000008211171561009057600080fd5b8083526020830192505050908051906020019080838360005b838110156100c45780820151818401526020810190506100a9565b50505050905090810190601f1680156100f15780820380516001836020036101000a031916815260200191505b50604052505050816000806101000a81548173ffffffffffffffffffffffffffffffffffffffff021916908373ffffffffffffffffffffffffffffffffffffffff160217905550806001908051906020019061014e929190610156565b5050506101fb565b828054600181600116156101000203166002900490600052602060002090601f016020900481019282601f1061019757805160ff19168380011785556101c5565b828001600101855582156101c5579182015b828111156101c45782518255916020019190600101906101a9565b5b5090506101d291906101d6565b5090565b6101f891905b808211156101f45760008160009055506001016101dc565b5090565b90565b6107748061020a6000396000f3fe608060405234801561001057600080fd5b50600436106100575760003560e01c8063200d2ed21461005c5780632bb8b0dc146100df578063481c6a751461016757806386a5ff97146101b1578063f7bd21651461026c575b600080fd5b6100646102ff565b6040518080602001828103825283818151815260200191508051906020019080838360005b838110156100a4578082015181840152602081019050610089565b50505050905090810190601f1680156100d15780820380516001836020036101000a031916815260200191505b509250505060405180910390f35b61010b600480360360208110156100f557600080fd5b810190808035906020019092919050505061039d565b604051808c81526020018b81526020018a81526020018981526020018881526020018781526020018681526020018581526020018481526020018381526020018281526020019b50505050505050505050505060405180910390f35b61016f6103f7565b604051808273ffffffffffffffffffffffffffffffffffffffff1673ffffffffffffffffffffffffffffffffffffffff16815260200191505060405180910390f35b61026a600480360360208110156101c757600080fd5b81019080803590602001906401000000008111156101e457600080fd5b8201836020820111156101f657600080fd5b8035906020019184600183028401116401000000008311171561021857600080fd5b91908080601f016020809104026020016040519081016040528093929190818152602001838380828437600081840152601f19601f82011690508083019250505050505050919291929050505061041c565b005b6102fd600480360361016081101561028357600080fd5b8101908080359060200190929190803590602001909291908035906020019092919080359060200190929190803590602001909291908035906020019092919080359060200190929190803590602001909291908035906020019092919080359060200190929190803590602001909291905050506104f8565b005b60018054600181600116156101000203166002900480601f0160208091040260200160405190810160405280929190818152602001828054600181600116156101000203166002900480156103955780601f1061036a57610100808354040283529160200191610395565b820191906000526020600020905b81548152906001019060200180831161037857829003601f168201915b505050505081565b600260205280600052604060002060009150905080600001549080600101549080600201549080600301549080600401549080600501549080600601549080600701549080600801549080600901549080600a015490508b565b6000809054906101000a900473ffffffffffffffffffffffffffffffffffffffff1681565b6000809054906101000a900473ffffffffffffffffffffffffffffffffffffffff1673ffffffffffffffffffffffffffffffffffffffff163373ffffffffffffffffffffffffffffffffffffffff16146104de576040517f08c379a00000000000000000000000000000000000000000000000000000000081526004018080602001828103825260098152602001807f666f7262696464656e000000000000000000000000000000000000000000000081525060200191505060405180910390fd5b80600190805190602001906104f492919061069a565b5050565b6000809054906101000a900473ffffffffffffffffffffffffffffffffffffffff1673ffffffffffffffffffffffffffffffffffffffff163373ffffffffffffffffffffffffffffffffffffffff16146105ba576040517f08c379a00000000000000000000000000000000000000000000000000000000081526004018080602001828103825260098152602001807f666f7262696464656e000000000000000000000000000000000000000000000081525060200191505060405180910390fd5b6040518061016001604052808c81526020018481526020018381526020018b81526020018a815260200189815260200188815260200187815260200186815260200185815260200182815250600260008d8152602001908152602001600020600082015181600001556020820151816001015560408201518160020155606082015181600301556080820151816004015560a0820151816005015560c0820151816006015560e082015181600701556101008201518160080155610120820151816009015561014082015181600a01559050505050505050505050505050565b828054600181600116156101000203166002900490600052602060002090601f016020900481019282601f106106db57805160ff1916838001178555610709565b82800160010185558215610709579182015b828111156107085782518255916020019190600101906106ed565b5b509050610716919061071a565b5090565b61073c91905b80821115610738576000816000905550600101610720565b5090565b9056fea265627a7a72315820c8f1d50f6ca27ba2e9e45083fc7d3b6ffe7d3f1985eed119ed11b5c58cb4d97a64736f6c634300050c0032a265627a7a723158206d34ccab2ddf16765dfdb77adf371a3bf0b030cc36b5ef74df3d985ef514591764736f6c634300050c0032",
  "source": " pragma solidity ^0.5.0;\n\nimport \"./CaseContract.sol\";\n\ncontract CaseFactory {\n    event CaseContractCreated(address newCaseContract);\n    address payable public manager;\n\n    mapping(address => CaseContract) public cases;\n\n    modifier managerOnly {\n        require(msg.sender == manager, \"forbidden\");\n        _;\n    }\n\n    constructor() public {\n        manager = msg.sender;\n    }\n\n    function createCase(string memory _status) public managerOnly {\n        CaseContract newCaseContract = new CaseContract(manager, _status);\n        cases[address(newCaseContract)] = newCaseContract;\n        emit CaseContractCreated(address(newCaseContract));\n    }\n}",
  "sourcePath": "/home/evangelos/Documents/ChildRescue/childrescue-blockchain/contracts/CaseFactory.sol",
  "compiler": {
    "name": "solc",
    "version": "0.5.12+commit.7709ece9.Emscripten.clang"
  },
  "schemaVersion": "3.0.19",
  "updatedAt": "2019-12-20T08:15:55.536Z",
  "devdoc": {
    "methods": {}
  },
  "userdoc": {
    "methods": {}
  }
}